:1000000000308A001A28000023308400831300087F
:10001000031917280230F800F701F70B0D28F80B29
:100020000C289730F700F70B1328800B0A288A1149
:100030000A12592803081F398300FF30A2008316D3
:100040001F149F141F159F1107309C0083131F134B
:1000500083121F139F1783169F1383121F14831677
:100060001F109F141F159F15073086000030870052
:100070008312A200F80006389200FF308316920027
:1000800083122211220883168700831207110C3075
:100090009700A210220883168700831287100C3065
:1000A0009D00A0001F15A10095019B010A30A3002F
:0600B00004285128630042
:02400E00723FFF
:00000001FF
;PIC16F877A
;CRC=6EFA  CREATED="29-May-24 00:45"
